:100000000C9462000C948A000C948A000C948A0070
:100010000C948A000C948A000C948A000C948A0038
:100020000C948A000C948A000C948A000C948A0028
:100030000C948A000C948A000C948A000C948A0018
:100040000C942E030C948A000C949E030C94780359
:100050000C948A000C948A000C948A000C948A00F8
:100060000C948A000C948A000000000023002600F3
:10007000290000000000240027002A0000000000E2
:10008000250028002B0004040404040404040202D4
:100090000202020203030303030301020408102007
:1000A0004080010204081020010204081020000012
:1000B0000008000201000003040700000000000027
:1000C0000000030611241FBECFEFD8E0DEBFCDBF76
:1000D00011E0A0E0B1E0E6EBFFE002C005900D9278
:1000E000AA32B107D9F721E0AAE2B1E001C01D921E
:1000F000AE3DB207E1F710E0C2E6D0E004C02197C0
:10010000FE010E94D307C136D107C9F70E9415042A
:100110000C94D9070C94000090E0FC01E255FF4FCD
:100120002491FC01E656FF4F3491FC01EA57FF4F42
:10013000E491EE23C9F0222339F0233001F1A8F431
:10014000213019F1223029F1F0E0EE0FFF1FE458C1
:10015000FF4FA591B4918FB7F894EC91611126C02F
:1001600030953E233C938FBF08952730A9F0283067
:10017000C9F0243049F7809180008F7D03C08091C1
:1001800080008F7780938000DFCF84B58F7784BD28
:10019000DBCF84B58F7DFBCF8091B0008F778093CC
:1001A000B000D2CF8091B0008F7DF9CF3E2BDACF57
:1001B000CF93DF9390E0FC01E656FF4F24918A57DE
:1001C0009F4FFC0184918823D1F090E0880F991F04
:1001D000FC01EE58FF4FA591B491FC01E458FF4F8C
:1001E000C591D49161110EC09FB7F8948C91E22F04
:1001F000E0958E238C932881E223E8839FBFDF91D3
:10020000CF9108958FB7F894EC91E22BEC938FBFC8
:10021000F6CF1F93CF93DF93182FEB0161E00E947D
:10022000D800209739F460E0812FDF91CF911F91A2
:100230000C948C00E12FF0E0E255FF4FE491E330A5
:1002400039F148F4E130B9F0E230E9F0C038D105D5
:1002500054F361E0E9CFE73029F1E83059F1E430B7
:10026000A9F780918000806280938000D0938B00FA
:10027000C0938A0004C084B5806884BDC7BDDF9187
:10028000CF911F91089584B5806284BDC8BDF7CF1A
:1002900080918000806880938000D0938900C09313
:1002A0008800EDCF8091B00080688093B000C0934B
:1002B000B300E5CF8091B00080628093B000C0931E
:1002C000B400DDCF3FB7F8948091DA019091DB0163
:1002D000A091DC01B091DD0126B5A89B05C02F3FA0
:1002E00019F00196A11DB11D3FBFBA2FA92F982F5C
:1002F0008827BC01CD01620F711D811D911D42E057
:10030000660F771F881F991F4A95D1F708958F921E
:100310009F92AF92BF92CF92DF92EF92FF924B01EA
:100320005C010E9462016B017C010E9462016C19F8
:100330007D098E099F09683E734081059105A8F3E8
:1003400021E0821A9108A108B10888EEC80E83E066
:10035000D81EE11CF11C81149104A104B10429F7F9
:10036000FF90EF90DF90CF90BF90AF909F908F90D5
:100370000895AF92BF92CF92DF92EF92FF920F93C8
:100380001F93CF93DF936C017B018B01040F151F2B
:10039000EB015E01AE18BF08C017D10759F0699193
:1003A000D601ED91FC910190F081E02DC6010995F7
:1003B000892B79F7C501DF91CF911F910F91FF90A4
:1003C000EF90DF90CF90BF90AF900895FC01538DD8
:1003D000448D252F30E0842F90E0821B930B54171F
:1003E00010F0CF96089501970895FC01918D828DAC
:1003F000981761F0A28DAE0FBF2FB11D5D968C9145
:10040000928D9F5F9F73928F90E008958FEF9FEF83
:100410000895FC01918D828D981731F0828DE80F3F
:10042000F11D858D90E008958FEF9FEF0895FC01F9
:10043000918D228D892F90E0805C9F4F821B9109C6
:100440008F73992708958AE291E00E94170221E0B4
:10045000892B09F420E0822F089580E090E0892B19
:1004600029F00E94230281110C9400000895FC01E0
:10047000A48DA80FB92FB11DA35ABF4F2C91848D05
:1004800090E001968F739927848FA689B7892C9362
:10049000A089B1898C91837080648C93938D848DB5
:1004A000981306C00288F389E02D80818F7D8083B8
:1004B0000895EF92FF920F931F93CF93DF93EC0178
:1004C00081E0888F9B8D8C8D98131AC0E889F989FB
:1004D000808185FF15C09FB7F894EE89FF896083FE
:1004E000E889F98980818370806480839FBF81E07F
:1004F00090E0DF91CF911F910F91FF90EF900895C1
:10050000F62E0B8D10E00F5F1F4F0F731127E02E9B
:100510008C8D8E110CC00FB607FCFACFE889F989D3
:10052000808185FFF5CFCE010E943702F1CFEB8DA0
:10053000EC0FFD2FF11DE35AFF4FF0829FB7F894A7
:100540000B8FEA89FB8980818062CFCFCF93DF93C5
:10055000EC01888D8823B9F0AA89BB89E889F989DB
:100560008C9185FD03C0808186FD0DC00FB607FC10
:10057000F7CF8C9185FFF2CF808185FFEDCFCE0143
:100580000E943702E9CFDF91CF91089560E086E0C5
:100590000E948C0060E085E00E948C0070E060E0CA
:1005A00089E00E94090160E087E00E948C0060E021
:1005B00084E00E948C0070E060E083E00C9409010C
:1005C0000F931F93CF93DF93182FEB0160E00E94EE
:1005D0008C008FE090E00197F1F761E0812F0E949D
:1005E0008C0083E290E00197F1F760E0812F0E9498
:1005F0008C00FE01E656FF4F6491FE01EA57FF4F63
:10060000E491F0E0EE0FFF1FE859FF4F85919491C0
:1006100000E412E42FE030E0462F0E94D003611581
:1006200071058105910529F06F5F7F4F8F4F9F4FB7
:100630009F700E94D8062DEC3CEC48EE51E40E94DD
:10064000300620E030E040E05FE30E9466070E9451
:10065000A206DF91CF911F910F9108951F920F92E3
:100660000FB60F9211242F933F938F939F93AF93C5
:10067000BF938091D6019091D701A091D801B091FC
:10068000D9013091D50123E0230F2D3758F501967C
:10069000A11DB11D2093D5018093D6019093D70160
:1006A000A093D801B093D9018091DA019091DB0138
:1006B000A091DC01B091DD010196A11DB11D8093D7
:1006C000DA019093DB01A093DC01B093DD01BF91CF
:1006D000AF919F918F913F912F910F900FBE0F90EF
:1006E0001F90189526E8230F0296A11DB11DD2CFA9
:1006F0001F920F920FB60F9211242F933F934F9397
:100700005F936F937F938F939F93AF93BF93EF9379
:10071000FF938AE291E00E943702FF91EF91BF912F
:10072000AF919F918F917F916F915F914F913F9189
:100730002F910F900FBE0F901F9018951F920F9240
:100740000FB60F9211242F938F939F93EF93FF93E4
:10075000E0913A01F0913B018081E0914001F091FC
:10076000410182FD1BC09081809143018F5F8F7397
:1007700020914401821741F0E0914301F0E0E65DF1
:10078000FE4F958F80934301FF91EF919F918F9141
:100790002F910F900FBE0F901F9018958081F4CF6E
:1007A000CF92DF92EF92FF920F931F93E82FF92FD2
:1007B00005C0015011092109310961F19081962389
:1007C0009417B9F305C0015011092109310911F13C
:1007D000908196239413F7CFC12CD12CE12CF12CCE
:1007E0000AC08FEFC81AD80AE80AF80A0C151D05C6
:1007F0002E053F0579F080818623841791F36C2DB7
:100800007D2D8E2D9F2D1F910F91FF90EF90DF90EA
:10081000CF90089560E070E080E090E01F910F912C
:10082000FF90EF90DF90CF900895789484B5826028
:1008300084BD84B5816084BD85B5826085BD85B584
:10084000816085BD80916E00816080936E00109202
:10085000810080918100826080938100809181007D
:10086000816080938100809180008160809380000E
:100870008091B10084608093B1008091B00081606C
:100880008093B00080917A00846080937A00809198
:100890007A00826080937A0080917A0081608093F0
:1008A0007A0080917A00806880937A001092C1006B
:1008B00060E08CE00E94D80061E08DE00E94D800EA
:1008C00060E08AE00E94D80061E08BE00E94D800DE
:1008D00060E088E00E94D80061E089E00E94D800D2
:1008E00061E086E00E94D80061E085E00E94D800C7
:1008F00061E089E00E94D80061E087E00E94D800B2
:1009000061E084E00E94D80061E083E00E94D800AA
:10091000E0913A01F0913B0182E08083E091360161
:10092000F09137011082E0913801F09139018FEC9C
:10093000808310924201E0913E01F0913F0186E0F8
:100940008083E0913C01F0913D0180818061808352
:10095000E0913C01F0913D01808188608083E091CD
:100960003C01F0913D01808180688083E0913C01F1
:10097000F0913D0180818F7D808380E4B82EC0E0BE
:10098000D0E06CE070E08DE090E00E94E0026093C7
:10099000D1017093D2018093D3019093D4016AE086
:1009A00070E08BE090E00E94E0026093CD017093D4
:1009B000CE018093CF019093D00168E070E089E090
:1009C00090E00E94E0026093C9017093CA01809395
:1009D000CB019093CC01B0927C0080917A0080642E
:1009E00080937A0080917A0086FDFCCF0091780098
:1009F000109179001093C8010093C701C090D101F4
:100A0000D090D201E090D301F090D4018FE1C816CC
:100A1000D104E104F1040CF443C08091CD01909124
:100A2000CE01A091CF01B091D0014F97A105B105A2
:100A300034F18091C9019091CA01A091CB01B0918C
:100A4000CC014F97A105B105D4F061E086E00E948A
:100A50008C0060E085E00E948C0066E970E089E02F
:100A60000E94090161E087E00E948C0060E084E060
:100A70000E948C0066E970E083E00E94090164E650
:100A800070E080E090E00E948701209709F479CF20
:100A90000E942302882309F474CF0E94000071CFC2
:100AA0008EE1C816D104E104F10449F360E086E068
:100AB0000E948C0061E085E00E948C0066E970E095
:100AC00089E00E94090160E087E00E948C0061E0FB
:100AD00084E00E948C0066E970E083E00E940901D6
:100AE00064EF71E080E090E00E9487018091CD0189
:100AF0009091CE01A091CF01B091D0014F97A10567
:100B0000B1050CF45EC060E086E00E948C0061E0FC
:100B100085E00E948C0066E970E089E00E9409018E
:100B200061E087E00E948C0060E084E00E948C001D
:100B300066E970E083E00E94090164EF71E080E003
:100B400090E00E94870184E1C816D104E104F10419
:100B50005CF40233110544F40E94C60268E873E1B4
:100B600080E090E00E9487018091CD019091CE01BC
:100B7000A091CF01B091D0014E97A105B1050CF025
:100B80007ECF8091C9019091CA01A091CB01B09113
:100B9000CC014E97A105B1050CF071CF44E150E0B6
:100BA00062E171E08AE291E00E94B90142E050E026
:100BB00067E271E08AE291E00E94B9010E94C602F8
:100BC000FFCF8091C9019091CA01A091CB01B09152
:100BD000CC014F97A105B1059CF061E086E00E9431
:100BE0008C0060E085E00E948C0066E970E089E09E
:100BF0000E94090160E087E00E948C0061E095CFCF
:100C00000E94C602A0CFEAE2F1E01382128288EECF
:100C100093E0A0E0B0E084839583A683B78384E06B
:100C200091E09183808385EC90E09587848784ECC4
:100C300090E09787868780EC90E0918B808B81ECA9
:100C400090E0938B828B82EC90E0958B848B86EC8A
:100C500090E0978B868B118E128E138E148E0895D2
:100C60000E9444060C942C070E94250758F00E940D
:100C70001E0740F029F45F3F29F00C94150751112D
:100C80000C9460070C941B070E943D0768F399239E
:100C9000B1F3552391F3951B550BBB27AA27621778
:100CA0007307840738F09F5F5F4F220F331F441F85
:100CB000AA1FA9F335D00E2E3AF0E0E832D09150B9
:100CC0005040E695001CCAF72BD0FE2F29D0660FA6
:100CD000771F881FBB1F261737074807AB07B0E8E9
:100CE00009F0BB0B802DBF01FF2793585F4F3AF0EF
:100CF0009E3F510578F00C9415070C9460075F3FF8
:100D0000E4F3983ED4F3869577956795B795F79574
:100D10009F5FC9F7880F911D9695879597F908955C
:100D2000E1E0660F771F881FBB1F621773078407F8
:100D3000BA0720F0621B730B840BBA0BEE1F88F707
:100D4000E09508950E94A9066894B1110C9460077B
:100D500008950E94450788F09F5798F0B92F99276A
:100D6000B751B0F0E1F0660F771F881F991F1AF096
:100D7000BA95C9F714C0B13091F00E945F07B1E095
:100D800008950C945F07672F782F8827B85F39F094
:100D9000B93FCCF3869577956795B395D9F73EF42F
:100DA00090958095709561957F4F8F4F9F4F0895D7
:100DB000E89409C097FB3EF49095809570956195F5
:100DC0007F4F8F4F9F4F9923A9F0F92F96E9BB27AB
:100DD0009395F695879577956795B795F111F8CF27
:100DE000FAF4BB0F11F460FF1BC06F5F7F4F8F4F92
:100DF0009F4F16C0882311F096E911C0772321F088
:100E00009EE8872F762F05C0662371F096E8862F1F
:100E100070E060E02AF09A95660F771F881FDAF776
:100E2000880F9695879597F9089597F99F6780E8B9
:100E300070E060E008959FEF80EC089500240A942C
:100E40001616170618060906089500240A941216A5
:100E50001306140605060895092E0394000C11F4D8
:100E6000882352F0BB0F40F4BF2B11F460FF04C085
:100E70006F5F7F4F8F4F9F4F089557FD9058440FDE
:100E8000551F59F05F3F71F04795880F97FB991FE9
:100E900061F09F3F79F087950895121613061406A6
:100EA000551FF2CF4695F1DF08C016161706180633
:100EB000991FF1CF86957105610508940895E8940E
:100EC000BB2766277727CB0197F908950E947907FA
:100ED0000C942C070E941E0738F00E94250720F072
:100EE000952311F00C9415070C941B0711240C94F6
:100EF00060070E943D0770F3959FC1F3950F50E086
:100F0000551F629FF001729FBB27F00DB11D639FBB
:100F1000AA27F00DB11DAA1F649F6627B00DA11D61
:100F2000661F829F2227B00DA11D621F739FB00D07
:100F3000A11D621F839FA00D611D221F749F332777
:100F4000A00D611D231F849F600D211D822F762F10
:100F50006A2F11249F5750409AF0F1F088234AF0ED
:100F6000EE0FFF1FBB1F661F771F881F9150504059
:100F7000A9F79E3F510580F00C9415070C9460076B
:100F80005F3FE4F3983ED4F3869577956795B795E0
:100F9000F795E7959F5FC1F7FE2B880F911D9695FA
:100FA000879597F90895EE0FFF1F0590F491E02DB6
:060FB0000994F894FFCF44
:100FB600000000005902B901E601A6021702F50178
:100FC6000902596172C4B1C59F2074616D616D6C6F
:0A0FD600616E64C4B121000D0A0031
:00000001FF
